:04000000FEEFFFF020
:10BFFE00000000840000000106FFFFFFFFFFFFFFAF
:10C00E00FFFFFFFFFFFFFFFFFFFFFFFFFFFFFFFF32
:10C01E00FFFFFFFFFFFFFFFFFFFFFFFFFFFFFFFF22
:10C02E00FFFFFFFFFFFFFFFFFFFFFFFFFFFFFFFF12
:10C03E00FFFFFFFFFFFFFFFFFFFFFFFFFFFFFFFF02
:10C04E00FFFFFFFFFFFFFFFFFFFFFFFFFFFFFFFFF2
:10C05E00FFFFFFFFFFFFFFFFFFFFFFFFFFFFFFFFE2
:10C06E00FFFFFFFFFFFFFFFFFFFFFFFFFFFFFFFFD2
:10C07E00FFFFFFFFFFFFFFFFFFFFFFFFFFFFFFFFC2
:10C08E00FFFFFFFFFFFFFFFFFFFFFFFFFFFFFFFFB2
:10C09E00FFFFFFFFFFFFFFFFFFFFFFFFFFFFFFFFA2
:10C0AE00FFFFFFFFFFFFFFFFFFFFFFFFFFFFFFFF92
:10C0BE00FF484010390000E001C03C000267F44820
:10C0CE004013C00000E0004E7510390000E001C0C2
:10C0DE003C0001671010390000E000000000000075
:10C0EE003C00014E75000000004E757E2E60000172
:10C0FE00227E2E6000011C207C00008000203C006F
:10C10E000010002648D1C02748044A2E7C00008427
:10C11E0000303C4EF9204F30C043FAFFE820C930C2
:10C12E00C043FA00DC20C930C043FAFF9E20C9305C
:10C13E00C043FAFF7E20C930C043FAFFB020C93099
:10C14E00C043FAFFAE20C930C043FA263420C9706E
:10C15E0000174005E4174005E5174005E837400590
:10C16E00EA374005D6177C005005E6177C000E0511
:10C17E00E2177C003805E749EB048E41EB05EC270E
:10C18E0048042E61000322610008A0202B044A906F
:10C19E00AB042E61001BDC41FA3404610008EA4155
:10C1AE00FA29E861001A7441FA00922748040261E4
:10C1BE00001FE64EEB04007E2C60567E2A60527EF7
:10C1CE0028604E7E26604A7E2460467E2260427E35
:10C1DE0020603E7E1E603A7E1C60367E1A60327E85
:10C1EE0018602E7E16602A7E1460267E1260227ED5
:10C1FE0010601E7E0E601A7E0C60167E0A60127E25
:10C20E0008600E7E06600A7E0460067E0260027E74
:10C21E0000610002CA6100081243FA2FFA3E317023
:10C22E000041F170006100086041FA333561000889
:10C23E0058202B04526B0461001B2C41FA335661BB
:10C24E0000084672FF27410452174105DC4BEB04F0
:10C25E0090610000EC61000BFC67F665086100015F
:10C26E0056600003C6610006406100014A222B049D
:10C27E002A6100021865322250202B04329089E286
:10C28E0088538048402448484034D951C8FFFC4860
:10C29E004051C8FFF4274A0432274A0436274A047D
:10C2AE003A274A043E274A0442102B049067642220
:10C2BE006B043245F12008274A0432274A043627F8
:10C2CE004A043A274A043E274A0442276B044A048A
:10C2DE004622099288E289538148414841352151CD
:10C2EE00C9FFFC484151C9FFF443EB049024487246
:10C2FE00FF24C124EB042AE24A534234D951CAFF27
:10C30E00FC601050484A1866FC320802410001D009
:10C31E00C1228822484A9066EA610001986000FFB7
:10C32E00246100077E7020610007787008610007A5
:10C33E0072534160106100076870206100076472DB
:10C34E000041EB04904EAB040C64FA67F8B03C006D
:10C35E00076718B03C000D670006CA4A416606B072
:10C36E003C002063E0B03C000867B6B27C00FF647E
:10C37E000C1180100052416100072860C8700760E0
:10C38E00F611802000524252411035100067000015
:10C39E0094B03C002067EAB03C0030654AB03C00E7
:10C3AE003963DE7ADFCA00BA3C00416540BA3C0010
:10C3BE004663CE603872002401174105DD7000100F
:10C3CE00351000675EB03C005F6458B03C003C64C2
:10C3DE001CB03C0030644C174005DAB03C002267BC
:10C3EE0076B03C0024679AB03C002A6536082B00D4
:10C3FE000605DD662E903C002AD04043FA2C1A30FA
:10C40E003100006B6E43FA2FA6D2C076FF38015270
:10C41E0043103130006B0A5244B035400067F06073
:10C42E0040320411802000524252414A00674A9025
:10C43E003C003A6706B03C00496604174005DD90A3
:10C44E003C00556600FF78174005DA10351000677E
:10C45E00D2B02B05DA67CC118020005242524160D7
:10C46E00EA38015243103130006AF852431031302D
:10C47E000066A21035100060AA7000010267061156
:10C48E008020005242218020004E75206B042E60C9
:10C49E0002204020186708B2906EF659484E755922
:10C4AE004853804E75664E206B042E700020C027B8
:10C4BE004804322A6B042E534D276B044A0446203F
:10C4CE002B0432274004362740043A2740043E27E7
:10C4DE004004427000174005EA610001D049EB04A8
:10C4EE008E201F2E7C000084002F00700027400439
:10C4FE005A174005DF4E7567C04E75651272FF27DD
:10C50E0041042A72004A00670AB03C00B366E66135
:10C51E000003966100FF766100093A6716B03C0091
:10C52E00B366D272FF2741042A61000926670461AF
:10C53E00000376177C000005DD610004EE2018670D
:10C54E00B422406100012C2018B0AB042A62A64828
:10C55E00E700C06100181C4CDF030070206100056D
:10C56E0042B03C002266060A2B00FF05DD1018665D
:10C57E00082049200866BC4E756AE24A2B05DD6B21
:10C58E00DC45FA2AFE727FC200E54945F210001022
:10C59E001A6100050E7200121A6BD2301245FA2E75
:10C5AE000E45F20000101A610004F851C9FFF86040
:10C5BE00BC61000396202B0472B0AB043A6C00FCF5
:10C5CE0020610002142E882F2B045270AA610008DD
:10C5DE007A610007081F2B05B5610006FE2F2B059B
:10C5EE00903F2B0594277C800000000590377C81BE
:10C5FE000005946100085EB03C00AF66086100085B
:10C60E0052610006D62F2B05903F2B05942F2B043D
:10C61E00723F3C00816018300DC07C0001DAC020F2
:10C62E001D6700FC18275D045261000828611A611D
:10C63E00404A2B04526B04274D045A101D67D8B084
:10C64E003C003A67E46000FBC46700008C0A0000FF
:10C65E00806B0002F6B03C00286400FBB04880D02E
:10C66E004041FA287C30300000487000006000071E
:10C67E00E24EEB0424B03C0003670C4E7566FC17CB
:10C68E007C000005DC66F443EB0590BBC9650A2708
:10C69E004D045A276B04520456584F102B05DC6775
:10C6AE0000FB9A41FA2EB36000FB84206B042E67C8
:10C6BE0020610001F4B2AB0452630E204D4A18669D
:10C6CE00FC3008C07C0001D0C06100FDC86500FBD5
:10C6DE00244A20274804624E75610010E217400577
:10C6EE00E44E756600FB264A2B04526A00FAE620D9
:10C6FE002B045A6700FADE2A40276B045604524E6A
:10C70E0075660C6100FDAE274D045A6000FF226174
:10C71E0000FDA8601C2F0D2F2B04523F3C009C489F
:10C72E007AFF0E6000072E2F0D2F2B04523F3C0078
:10C73E008D61000720487AFEF86100016C206B04C1
:10C74E002EB2AB0452630E204D4A1866FC3008C060
:10C75E007C0001D0C06100FD3C6500FA982A485368
:10C76E004D274D045A4E750C6F009C00046600FA5E
:10C77E005C1E00672EBE3C003A67289E3C00B067E8
:10C78E000853076600FA867EFF610006C661000543
:10C79E00624A2B05946706177C00FF0594BF2B0594
:10C7AE00946614276F000604522A6F000A41FAFE9F
:10C7BE00802E886000069E4FEF000E601466160CE9
:10C7CE006F008D00046600FA405C4F275F04522A0A
:10C7DE005F61042A484E75204D7222743A6008B487
:10C7EE00006708B200670C101866F453484E75B215
:10C7FE000067F4101866F860F2610004F661000636
:10C80E0054B03C00AD6714B03C00896600F9FE20C0
:10C81E004D6100063E2A486400F9F2102B0594671C
:10C82E001E6100062E6500FF12B03C008E6700FEF2
:10C83E001E6100FE161015B03C00A967944E7510CF
:10C84E001D163C00A9183C008B7A00101D6720B005
:10C85E00046604524560F4B00366F051CDFFEE61FC
:10C86E000005F26500FED46000FDE04A1D66FC5333
:10C87E004D4E7561000F481400610005D83F00B0A1
:10C88E003C008D6708B03C00896600F98053026653
:10C89E0006301F6000FDB8610005B8610AB03C00AB
:10C8AE002C67EA301F4E7572002001610005A664E8
:10C8BE002E2F022401D2816500F952D2816500F932
:10C8CE004CD2826500F946D2816500F940903C0059
:10C8DE0030D2806900F9366100057865D6241F27AD
:10C8EE0041042A4E753F3C8180600A3F3C810060C6
:10C8FE00046100055E6100076C67324A2B05B56B5B
:10C90E0000F8DE6636274804726100130E277C801D
:10C91E00000000059830173740059C176B059505EC
:10C92E009EB12B059E6100100E6100130A61000579
:10C93E00240C00002C67BA544F4E754A2F00016626
:10C94E0004529060E8539060E46100071427480495
:10C95E00721F2B05B570BD610004F06100039410C9
:10C96E002B05B5175F05B5E318610003726700125A
:10C97E00C6246B0472206B05902250B3EB044665FF
:10C98E0016B1EB043265107200322800042050619B
:10C99E00000B06206B0590B9C866025C4C24D83497
:10C9AE00904E75610006BA274804724A2B05B56B86
:10C9BE000C61001DF2610009BC6000127A72002049
:10C9CE004161001DE26408720161000AFE1080617F
:10C9DE00000ADE609C610000B461000478674AB012
:10C9EE003C00A86764B03C00AC675EB03C002C67AE
:10C9FE0040B03C003B67000086610002F64A2B0502
:10CA0E00B56BD2610013B261000A607000102B0585
:10CA1E00E6670C902C0007902B05E56402610A6115
:10CA2E006A60B611BC00001000700D6174700A606F
:10CA3E0070142B05E5B42B05E7650461EC603E949C
:10CA4E002B05E264FA440260223F0061000D6C3453
:10CA5E000061000400B03C00296600F7B0301FB042
:10CA6E003C00A86606942B05E5631270005300C4C3
:10CA7E0080670A70205302612851CAFFFC610003CF
:10CA8E00D26600FF5C4E75610009E061000BD06755
:10CA9E000C320053411018610851C9FFFA4E7570DF
:10CAAE003F2F01B03C00206528122B05E6661012C0
:10CABE002B05E5922B05E26614174105E5600EB2D3
:10CACE002B05E566082F006100FF60201F522B0525
:10CADE00E54EAB0412B03C000D66187200122B0529
:10CAEE00E4670C70004EAB041251C9FFFA700D17BB
:10CAFE004105E5221F4E752A5F4A2B05E06A0A277B
:10CB0E006B045E04526000F6D841FA2A766100FF8B
:10CB1E00782A6B045A4E7561000862B03C0022669A
:10CB2E000E61000306703B610003206100FF5E6131
:10CB3E0000F80470004A10660A6000FB58206B046F
:10CB4E00627098174005E0274804666100051227B9
:10CB5E004804722F0D2A6B0466610002F8661E4AA5
:10CB6E002B05E06B726100FF386100F7CA4A106650
:10CB7E00046000FB202A48534D610002D64A2B0563
:10CB8E00B56A201400B03C00226706743A702C532C
:10CB9E004D524D1600204D610008D42A4A6100FD09
:10CBAE00D260101F2B05B561001DA6175F05B5617C
:10CBBE000010846100029E670AB03C002C6600FFE4
:10CBCE0038524D274D04662A5F6100028867364849
:10CBDE007AFF7A600002726100FBFE2A48524DB065
:10CBEE003C003A6712320DC27C0001DAC1241D6787
:10CBFE0000F612275D045E6100025AB03C008367A6
:10CC0E0000FF7860D2206B04664A2B05E06A062787
:10CC1E004804624E754A1066024E7541FA295460F8
:10CC2E0000FE666610584F0C5700816600F5E22034
:10CC3E006F0002601C6100042C584F303C00817262
:10CC4E001C6002DFC1B0576600F5C6B1EF00026688
:10CC5E00F2376F0006059C276F00080598176F00C6
:10CC6E001205B56100021E176B059D059E102B0562
:10CC7E0095B12B059E2748047261000CBA176F0000
:10CC8E001205B561000FB0376F000C059C276F00C1
:10CC9E000E0598176B059D059E102B0595B12B055E
:10CCAE009E6100103C322F0006B1414A0067044AD3
:10CCBE00016A0E276F001404522A6F00186000F9E3
:10CCCE0070DEFC001C6100018CB03C002C6600F98B
:10CCDE00606100017E6100FF5E6116B040082B00AE
:10CCEE000705B566066500F4F84E756400F4F24E5D
:10CCFE0075534D7200174105B5601C41FA22CA30BA
:10CD0E00301002487000002F2B05903F2B05941F0A
:10CD1E002B05E3323010003F01610000E4177C0068
:10CD2E000005E36100012E903C00BC652AB03C007A
:10CD3E0003650A4A2B05E36660600000867201E116
:10CD4E0021102B05E3B32B05E3B02B05E36400F4B0
:10CD5E00BC610000FE60D04A2B05E3663CD03C006F
:10CD6E000A645E66084A2B05B56B00087E7200D019
:10CD7E0000D0001200301F41FA224EB07010006435
:10CD8E00466100FF583F006100FF72301F222B05E5
:10CD9E00D86A223000672E603C102B05B5122B0589
:10CDAE00E3D000D301177C000005B5174105E3530E
:10CDBE004D723060C041FA2210B0701000641660DF
:10CDCE00C472FF301F6732B07C006467046100FFDD
:10CDDE000C274105D8101F1200E208174005E13755
:10CDEE005F059C275F0598176B059D059E102B050B
:10CDFE0095B12B059EE2094E75102B05944E75616B
:10CE0E005065001B4C4A006B000090B03C0024673C
:10CE1E00001B3EB03C002567001B36B03C002E6761
:10CE2E00001B2EB03C0022660C101D204D6100062A
:10CE3E003A2A4A4E75B03C002866446100FEB67030
:10CE4E00296006487A0978702CB01D67066000F3D9
:10CE5E00BC101D1015B03C002067F6B03C00A96454
:10CE6E000EB03C003A64081C3C00D0D00690064E32
:10CE7E00756100FE6872284FEF00046000FF0A61C2
:10CE8E000001E24A2B05B567000D906A062748059A
:10CE9E00904E752010600004BCB03C00B367D2B059
:10CEAE003C00B26700FF5AB03C00AE6606323C0052
:10CEBE002C60C4B03C00AB67000514903C00BF650D
:10CECE0000F34AC07C007FD04041FA20B0323000DF
:10CEDE00004870100041FA205830300000671241AF
:10CEEE00F000004ED06100FF544A2B05B56A00F2E7
:10CEFE00F04E756100FF464A2B05B56B00F2E24E0F
:10CF0E0075177C000005B5101D4E756100FDE64AD3
:10CF1E002B05B56A00F2CA141DB43C002C6600F253
:10CF2E00EC2F2B0590610008AC205F4E756100FD63
:10CF3E00C44A2B05B56B00F2A861000DD072001427
:10CF4E001DB43C002C660C2F0061000872220020DC
:10CF5E001F141DB43C00296600F2B24E756116B561
:10CF6E0080600003F0610E8082600003E86106C0FD
:10CF7E0082600003E061000228240061000CF6606C
:10CF8E0000021E6100021A4680600003C86100FDA7
:10CF9E004E650661000D4A6042177C000005B561C2
:10CFAE000006BC22482200206B0598610006B424BE
:10CFBE000066044A8167249481670C650470FF60E3
:10CFCE000822007001600220025381B30856C9FF87
:10CFDE00FC6708640470FF6002700152001200705A
:10CFEE0001E338C02B05E167000CDE70FF60000C1A
:10CFFE00D86100FE5472FF61706100FE5866F24EF9
:10D00E0075612E6708B43C00206420E5A060000323
:10D01E0044611E67F8B43C0020650A4A806A0C70B1
:10D02E00FF60000330E4A06000032A70006000037C
:10D03E00246100078E140061000C3A610001624AFF
:10D04E00024E75B03C00616410B03C004164048037
:10D05E00404E75B03C005B4E75B03C007B4E75612A
:10D06E00024E7572006100FDEC174105B461D46487
:10D07E0000F19A720041EB046A2081174105B5B2A6
:10D08E007C000464061180100052416100FDC465ED
:10D09E00EE61B065EAB03C0024660C002B00800403
:10D0AE006B6100FDAE6010B03C0026660A002B00DE
:10D0BE0080046C6100FD9C4A2B05DF670E6A14200C
:10D0CE002B046A720841EB0432601C903C00286706
:10D0DE000000F4202B046A720441EB0436080000B1
:10D0EE00176704544158482268000420506006B067
:10D0FE00986776D1C1B1C966F64A2B05DF660A4537
:10D10E00FAFF60B5D76600F0C0082B000005DF6699
:10D11E0000F0BE246B0442240A9489204A5881D51B
:10D12E00C1274A0442E28A67125382484248423576
:10D13E002051CAFFFC484251CAFFF44A2B05DF6B4F
:10D14E000808000017660A6004D3AB0436D3AB049C
:10D15E003AD3AB043E20C020BC0000000008000003
:10D16E00176706317C000000042200D2814841E29C
:10D17E0019E249C23C00C0174105B5177C000005F5
:10D18E00DF4E757005D02B05DBD080D0884E7561D3
:10D19E0000FCC06100FB444A2B05956B00F0620C4D
:10D1AE002B00A0059465000B646600F0544A2B0515
:10D1BE00956A000B58202B059044806800F042279A
:10D1CE0040042A4E753F2B05B472003F012F2B04ED
:10D1DE006A61BC48404A406600F016275F046A3216
:10D1EE001F301F3F2B042C3F0052416100FC66B0E4
:10D1FE003C002C67D6174105DB6100FC44375F0508
:10D20E00B4206B043E274805ACB1EB0442672E20D8
:10D21E0010B0AB046A670A20680004D1EB05AC605D
:10D22E00E44A2B05B46600EFC46100FF5850483045
:10D23E0018B02B05DB670000946000EF844A2B05C5
:10D24E00B46700EF806100FF3C202B046A20C0729F
:10D25E00040800001767027206274105A8122B0565
:10D26E00DB584830C1321F30C1610000AE27400587
:10D27E00A8532B05DB66EED1EB05A86500EF7AB15E
:10D28E00EB0446650C6100028EB1EB04466400EFC0
:10D29E0068274804427000222B05A8E289534131C9
:10D2AE000051C9FFFC48414A41670653414841605D
:10D2BE00EE206B05AC202B04429088214000044ADE
:10D2CE002B05B466525048375805DB7000274005D1
:10D2DE00A83218B2576500EF184A806702613A7299
:10D2EE0000321FD081274005A8532B05DB66E217BD
:10D2FE007C000005B572034A2B046B6A0A7205178F
:10D30E007C008005B5600C4A2B046C6A06177C0005
:10D31E004005B56104D1C04E75202B05A8240048E8
:10D32E0042C0C1C4C148424A426600EECCD08265BA
:10D33E0000EEC6D0AB05A86500EEBE4E754A2B05B5
:10D34E00B56A0461000318610001CC202B044690DD
:10D35E00AB0442177C000005B5377CA0000594276E
:10D36E004005906A000640003C000160000638103F
:10D37E002B05E5C0BC000000FF60D84A2B04526BA1
:10D38E0000EE624E7570AB6100FAC0177C0080052E
:10D39E00DF6100FCDA274805B061E00C1D0028664D
:10D3AE0000EE6A177C007E05DF6100FCB46100FAB6
:10D3BE009070BD6100FA942F2B046A2F0D6100F45A
:10D3CE0012206B05B0209F215F00044E75177C0064
:10D3DE008105DF6100FA7C6100FC941F2B05B52FDF
:10D3EE00080C1500286600EE246100FA50205F2715
:10D3FE004805B01F2B05B5202800046100FCDA108B
:10D40E001FE3186100F8D8671243EB0476B9C967B9
:10D41E0000EDC639280004291060022F102F081FB6
:10D42E002B05B561322F0D206B05B02A506100F827
:10D43E00C26100FA206600EDD42A5F101F205F4AF9
:10D44E00006A08209C315C00046002209F101FE3DC
:10D45E00186100F88A4E754A2B05B56A0007F0244C
:10D46E00486000F5126100095074223602720053B2
:10D47E004124485241103010006710B0026704B0CA
:10D48E000366F0B03C00226602524AD5C1B1CB65AC
:10D49E001EB1EB042E641822482001660420416060
:10D4AE000E6126D1C1D3C15340112151C8FFFC4397
:10D4BE00EB0476B9C96700ED2039012908274C0520
:10D4CE0090177C008005B54E754A41672E2F00706F
:10D4DE0000174005DE7001C041D041640470014860
:10D4EE0040206B044691C0B1EB04426512274804FC
:10D4FE00462748044E201F4A414E7530414E754A0C
:10D50E002B05DE6B00ECF22F09610A225F177C00FF
:10D51E008005DE60CC48E7E0E0276B044A04462233
:10D52E002B044270002240206B043A41E800042490
:10D53E006B043E60086100008441E8000AB1CA65D0
:10D54E00F441E8FFFC246B0442602424280004D438
:10D55E0088201008000017671430280008D040D02B
:10D56E00C041E8000A61545C48B1C266F82042B579
:10D57E00C866D8204C45EB048E6006613E41E8003B
:10D58E0006B5C866F62009672C20517200322900B4
:10D59E00045281C23C00FED1C1246B0446B1CA675D
:10D5AE000CE2895341352051C9FFFC228A275104D0
:10D5BE00466000FF6C4CDF07074E7520106728B2DF
:10D5CE00806424B0AB0446641E70FF30280004440F
:10D5DE0040C03C00FED0AB0446B09067062210223D
:10D5EE00484E75274004464E75487AF7382F2B055E
:10D5FE00906100F80C4A2B05B56A00EBE4205F221F
:10D60E006B059032280004D26900046500EBCE2F22
:10D61E00086100FEB62748059820573028000420E0
:10D62E00506120206B059061386118205F613220B7
:10D63E006B059822086700FE784481D2AB044E60D9
:10D64E0000FE6E32006714226B044E2F09534012F7
:10D65E00D851C8FFFC2749044E205F4E75206B053C
:10D66E009048E74040B9C866025C4C7000225830C2
:10D67E0018B9C86610B3EB0446660A7201C240D2EE
:10D68E0080D3AB044620494CDF02024A804E7561BE
:10D69E0000013072016100FE3210806000FE12C186
:10D6AE00416100F79C4A8167227000B268000465F0
:10D6BE001A6014C1416100F7884A81670E30280054
:10D6CE00049081640670003228000422486100FD37
:10D6DE00FA20492F00618AD1DF30016100FF6660B8
:10D6EE0000FDCE7E0053472F006100F768B03C006E
:10D6FE002C660C101D2F08610000DA205F2E0061D1
:10D70E0000F73E201F720053806B00EAF4B06800F1
:10D71E000464B82207DE406506BE68000465AC32BC
:10D72E00280004924060A46100FF34220067562254
:10D73E00486100FD96D1C1D3C1340153421021B0CE
:10D74E003C005B640AB03C004165040000002011FF
:10D75E000051CAFFEA602E6100FF042200672622F4
:10D76E00486100FD66D1C1D3C1340153421021B0CE
:10D77E003C0061650AB03C007B6404020000DF11CE
:10D78E000051CAFFEA6000FD28101D6100F8D66145
:10D79E0000F6AE4A2B05B56A00EA4620106000FB83
:10D7AE00B4487AFBB06000FEB66100FEB24A406734
:10D7BE0000EA4E10106000FBBC6100F6966100F5A9
:10D7CE001A6100F9D4123C0080D281C2806600EA50
:10D7DE00304E756100F5046100F9BE48404A40665E
:10D7EE0000EA1E48404E756100FE7467222C4D2AD9
:10D7FE0048D1C010103F002F0810BC00006100F689
:10D80E00546100114C205F301F10802A4E4E753728
:10D81E004005944E756100F4C26100F9842F0061D9
:10D82E0000F6266198205F4E75611E6100F61A6142
:10D83E0000F4A86100F96A48404A40670652406603
:10D84E0000E9BE4840205F4E756100F48E6100F91C
:10D85E0050080000006600E96420572E804ED0610B
:10D86E0000F93E204010106000FB0A61A810804EA7
:10D87E00756100F92CE2086500E942D000C188709C
:10D88E000030106000FACE6100F916E2086500E97A
:10D89E002CD000C18820106000FABA618C30804E06
:10D8AE007561A66100F5A26100F4306100F8F22006
:10D8BE005F20804E756100F7AC2F08182B05B561FF
:10D8CE0000F5866100F79E245FB82B05B56600E96A
:10D8DE0010201020D224C04A046AD830103092345E
:10D8EE00804E754EAB04066000F5564EEB04184E96
:10D8FE00EB041E487AF55E6100FF504E756100FF25
:10D90E00162F083F0074006100F54A67066100F5A6
:10D91E00342400321F205F1010B500C00167F84E8E
:10D92E00750A2B00800595176B059D059E102B051E
:10D93E0095B12B059E102B05946700033841EB051E
:10D94E0098102B059C6746902B05946722650A3725
:10D95E006B059C05944400514844002F01B03C00D7
:10D96E00206D04720060042210E0A92081221F4A5B
:10D97E002B059E6B1A202B0598D0AB0590640AE2FE
:10D98E0090522B05946500E874274005904E754320
:10D99E00EB0590B3C86602504920112210274005AE
:10D9AE009093AB0590640A0A2B00FF059544AB05D6
:10D9BE0090202B05906B2E6606374005944E752FE2
:10D9CE000122007000102B05946714D2815BC8FFF2
:10D9DE00FC4A40670A6A02700153002741059022F3
:10D9EE001F174005944E754A2B05956B00E8127E65
:10D9FE00001747059E1E2B05946700E8049EBC0089
:10DA0E00000081177C008105942C2B0590277C80CB
:10DA1E000000000598377C8100059C6100FF18709E
:10DA2E00003740059CDC86274605986758377C8072
:10DA3E0000059C610001304A2B05946748122B05A6
:10DA4E0094923C00824401202B0590E2A87C002297
:10DA5E003C4000000041FA14087A1E78016006E886
:10DA6E00A29282DC9024002601E8A36402528390E5
:10DA7E00836AEC200258485284E28B670451CDFF32
:10DA8E00F0DC86200628007A004A8767166A04446E
:10DA9E00877A80174505954847E18F7A885385DE4A
:10DAAE00876AFA2747059017450594277CB17217A8
:10DABE00F80598377C8000059C176B0595059E61CF
:10DACE0018274405986710377C8200059C176B0554
:10DADE0095059E6100FE604E7548E7F8004A2B05DD
:10DAEE00946776102B059C6770176B059E0595D075
:10DAFE002B0594640A903C00806400E70060069059
:10DB0E003C0080655417400594222B0590242B056C
:10DB1E00983801200148403600C2C2C0C24842C8EF
:10DB2E00C2C6C2D2BC0000800042414841D280D25F
:10DB3E00846406D6BC00010000D2BC000080004206
:10DB4E00414841D2836B08D281532B0594670A2733
:10DB5E004105904CDF001F4E757000274005903731
:10DB6E0040059460EE2F0770002400142B05946777
:10DB7E0000E676102B059C67669042D07C008017DD
:10DB8E006B059E0595422B059F262B0590282B0590
:10DB9E0098B883674465069883562B059F6146485F
:10DBAE00412802614284C51E2B059F6708E20FE2E1
:10DBBE0091E2525200D442640852816404E29152BE
:10DBCE004036006B1A0243FF006600E6302E1F1728
:10DBDE00400594274105904E757201E2A960DE70F2
:10DBEE0000220060E824042A034245484588C5689F
:10DBFE000278FF3C043204CCC3C8C53E06424648F8
:10DC0E0046D8867C009C4795846A085341DC43D5F0
:10DC1E00856BF8484234064E752010484037400553
:10DC2E00946708807C00804840E180274005901072
:10DC3E002B05944E752F08206B0472082B000605D9
:10DC4E00B5670C610000C62080205F4E752F0861FD
:10DC5E0000FD60612C202B0590E0984840C07C00B0
:10DC6E007F022B00800595806B0594484020802014
:10DC7E005F4E75376B059C0594276B059805904E86
:10DC8E0075102B05946720202B0590D0BC0000004A
:10DC9E0080640AE290522B05946500E560C03C005A
:10DCAE0000274005904E75174005954E7570001073
:10DCBE002B059467F6102B0595488048C0E08065CB
:10DCCE00EA70014E7561E627400590377CA000058D
:10DCDE0094D0806000FCD0177C000005954E751224
:10DCEE002B059C67C8102B059E6BCA102B0595B291
:10DCFE002B0594660A222B0598B2AB059067086532
:10DD0E00B80A00008060B270004E75202B05906737
:10DD1E00322F01123C00A0922B05946500E4DE66C2
:10DD2E000E4A2B05956A1A448069166000E4CEB23D
:10DD3E003C002065027000E2A84A2B05956A024459
:10DD4E0080221F2740042A4E75103C00A0902B0500
:10DD5E00946310B03C00206400026272FFE1A1C324
:10DD6E00AB05904E7541FA18006100ED1C202B0496
:10DD7E005243FA0DEE720041EB05CC240126311010
:10DD8E00006714782F524490836AFAD0831184204E
:10DD9E00005841524260E6D03C00301180200053C2
:10DDAE0048524843EB05D5B1C96700ECDC0C1000B6
:10DDBE003067EE6000ECD243EB05C6742008AB0072
:10DDCE000705956702742D1282142B059466087050
:10DDDE00307201600001A8177C000005ACB43C0055
:10DDEE00816448277C989680000598377C980005BA
:10DDFE009C176B0595059E6100FCE0177C00F905EC
:10DE0E00AC6028376B0594059C276B059005981719
:10DE1E006B0595059E277CCCCCCCCD0590377C7DB3
:10DE2E000005946100FCB4522B05AC277C98967FBC
:10DE3E00700598377C9800059C6100015062C4679C
:10DE4E0050277CF423F8000598377C9400059C41FC
:10DE5E00EB05906100013662202010122800042488
:10DE6E0000E488D0826404E29052015601208011B1
:10DE7E00410004532B05AC60DA277C8000000005BE
:10DE8E0098377C8000059C176B0595059E6100FAFE
:10DE9E00A66100FE787401102B05ACD03C00086B17
:10DEAE000CB03C0009640653001400700272005559
:10DEBE0000174005AD174205AC100267026A1452F6
:10DECE008113BC002E10004A026708528113BC0059
:10DEDE003010007400708041FA112226302000525A
:10DEEE0000D7AB042A08000007650467F2600266DB
:10DEFE00EE64064400D03C000BD03C002F5842523A
:10DF0E00411600C63C007F13831000042B00010550
:10DF1E00AC6608528113BC002E1000C03C00800A73
:10DF2E00000080B43C001C66AE103110005381B06E
:10DF3E003C003067F4B03C002E6702528113BC00E7
:10DF4E002B10024A2B05AD67386A0A13BC002D1040
:10DF5E0002442B05AD13BC00451001142B05AD700A
:10DF6E002F5200943C000A64F8D43C003A138010FF
:10DF7E00031382100413BC00001005600A138010F6
:10DF8E000013BC0000100120494E757000122B05C5
:10DF9E009CB22B0594660A222B0598B2AB059067AE
:10DFAE0008650453804E7552804E75277C800000A4
:10DFBE00000590377C810005944E75700027400552
:10DFCE0090374005944E754A2B059467DE4A2B0513
:10DFDE009C67E81F2B059D6A2072001741059D1254
:10DFEE002B0594927C00806300E216202B0590E3B3
:10DFFE00A06600E20C65021E802F2B05903F2B05BC
:10E00E00946100FC706100F9E0301F275F059837BE
:10E01E0040059C1740059E102B0595B12B059E6162
:10E02E0000FAB86158175F05954E754A2B0594672F
:10E03E00060A2B008005954E75277C800000000592
:10E04E0090377C810005944E754A2B05956A00E148
:10E05E00AC700027400590374005944E75277C80A4
:10E06E000000000590177C000005954A2B05B46A48
:10E07E00024481D23C0081174105944E75102B0548
:10E08E009467B6B03C006465B0177C000005B422FE
:10E09E002B0590B03C008762B06608B2BCB00F335F
:10E0AE00C764A64A2B05956A0C177C00FF05B417AA
:10E0BE007C00000595277CB8AA3B290598377C8102
:10E0CE0000059C177C0000059E6100FA0E177C006F
:10E0DE000005D91A2B05949A3C00806324202B0549
:10E0EE009022002C054446DC7C0020ECA91741054B
:10E0FE00D9EBA86700FF6827400590377C800005A4
:10E10E0094277CB17217F80598377C8000059C1710
:10E11E007C0000059E6100F9C2202B05901A2B058C
:10E12E00949A7C00824445EAA872002C3C26A3D126
:10E13E001041FA0D2C78007A036136594853847ACF
:10E14E0009612E594853847A1261264A2B05B46A06
:10E15E00064481442B05D97083DC816B065380DC29
:10E16E00866AFA27460590D02B05D9174005944E9E
:10E17E007552842406E8A22601E8A34A806B0CD2CD
:10E18E0082DC83909851CDFFEA4E7592829C83D0AB
:10E19E009851CDFFDE4E754A2B0594670841EB056D
:10E1AE00A06100FAAA72AF7412202B05A0D0806471
:10E1BE0002B30051CAFFF8274005A027400590374B
:10E1CE007C800005946000F7EA6138376B05940592
:10E1DE009C276B059005982741059017430594677A
:10E1EE0000E01A6100F7CC6000F97C277CC90FDAD9
:10E1FE00A30598377C8100059C176B0595059E61DC
:10E20E0000F734177C000005B4277CA2F9836F0554
:10E21E0098377C7F00059C176B0595059E6100F86D
:10E22E00BA102B0594671C41FA0B362C2B05905314
:10E23E00006710903C00806B18B03C00206404E135
:10E24E00AE661874817600203C80000000220360C8
:10E25E00624400B03C001E64EAE0AE176B05950503
:10E26E009EDC8664060A2B00FF0595DC86640C0A8C
:10E27E002B00FF05B40A2B00FF059EE48E67C47ABF
:10E28E00012028FFFC22009C9860089C989083D265
:10E29E008260122400EAA22601EAA34A866AECDC16
:10E2AE0098D08392825285BABC0000001E66E47438
:10E2BE008126024A2B05B46B04C141C54327400594
:10E2CE0090174205946000F6EA102B059467000043
:10E2DE00AC177C000005B4B03C00816528660820B0
:10E2EE002B0590D080671E277C8000000005983794
:10E2FE007C8100059C176B0595059E6100F86817DB
:10E30E007C00FF05B4202B0590123C0082922B0559
:10E31E0094E2A841FA0ACA7C00223C400000007A2E
:10E32E001D78016006E8A2D282DC9024002601E866
:10E33E00A390836AF0200258485284E28351CDFFA5
:10E34E00F2177C00820594274605906100F6644A18
:10E35E002B05B46A261E2B0595177C000005952704
:10E36E007CC90FDAA20598377C8180059C177C004A
:10E37E00FF059E6100F5C0174705954E756100F4C7
:10E38E0096B03C00086400DE7801D04E756100F452
:10E39E0086B03C00086400DE6801904E75101D6169
:10E3AE0000F474B03C00086400DE5622006100EAFE
:10E3BE00A4B03C00296600DE546100EA96700003AA
:10E3CE00106700F90470FF6000F8FE4A2B05B56A6D
:10E3DE0000DDE6246B05903E2A00046700DDDA704E
:10E3EE00003F003F003F003F002F0A7200204161B6
:10E3FE0000F0BE101DB03C002C6600DE1061000265
:10E40E008E4A026700DDB26100E8E84A2B05B56B63
:10E41E0000DDCE4A2B05946732322F000AB27C0003
:10E42E000864283001D241D240D24141FA08442733
:10E43E00701002059830301000907C0100374005B6
:10E44E009C177C0000059E6100F4EC6100F96A6186
:10E45E000001FE45EB05C67C00782E3406524610B0
:10E46E00326000677AB03C00456706B00466EE6025
:10E47E00EA36065343524610326000B03C002D6619
:10E48E0000DD7E524610326000B03C0030670470F2
:10E49E000A60085246700FC032600034030C42000E
:10E4AE000166025242D440700A90426E0CD440D69D
:10E4BE00400C4300016E0276003C02700015802075
:10E4CE000053420C420001671270304A4367EE104F
:10E4DE003230005343B00466E460F4158420004AE1
:10E4EE00426602340636025243382F00085244B2B6
:10E4FE0044632210304000B03C00256706B03C005B
:10E50E002366EA7030BC436306103230005243116A
:10E51E0080400060D87C007A005342660874011572
:10E52E00BC00302000382F0008B24464023801537A
:10E53E00446B62103040007E30B03C002567087E90
:10E54E0020B03C002366064A4266346042B03C006E
:10E55E002C66104A4266080C30002540FF66301EBD
:10E56E0000602CB03C002D6710B03C002B66C00C38
:10E57E0012002D670414BC002B1A004A4267081EB5
:10E58E00322000534260084A0666041E121C071110
:10E59E00874000609A4A4266144A0567544A0666E6
:10E5AE00500C05002B67060C12002D66447A233E94
:10E5BE000153473C2F000453466E023C0710316056
:10E5CE00000C000023671E0C00002567180C0000CD
:10E5DE002C67120C00002B670C0C00002D67060C2C
:10E5EE0000002E6602100511807000534651CFFFB9
:10E5FE00CE41EC0006274C05906100F004302F0050
:10E60E000467203F400006610000844A02661461E0
:10E61E003E3F6F0004000641EC0006274C0590615A
:10E62E0000EFDE101DB03C00296600FDCA204C2212
:10E63E002B04466100F02C2741044622483200206C
:10E64E005F6100F01E4FEF000820496000EE62226D
:10E65E006F00043E290004342F000A3C2F000832BC
:10E66E000692426202D2476100EE606100EE4222E3
:10E67E006F00042251780011B12000400052445224
:10E68E0042BE4266027400BC4266EC4E75226F00BA
:10E69E00043E29000422513C2F000A3F47000C7A09
:10E6AE00007600740010316000B03C002C6742B060
:10E6BE003C00236706B03C002566084A856A105266
:10E6CE0043602EB03C002B6706B03C002D660484E0
:10E6DE0000601EB03C002E66144A856B1430069006
:10E6EE006F000A3F40000C7AFF840060044A026605
:10E6FE00085246BE4662AE7C003F4600083F4300CD
:10E70E000E4E75B23C00216400DAF6741F41EB0523
:10E71E00B678307600E288D7041183200051CAFF04
:10E72E00F4177C000005D64A01670E4481D2BC0066
:10E73E000005D641F31000600E1010670AB03C00C1
:10E74E0030660E524860F243EB05D6B1C9660253ED
:10E75E00486000ED16B23C00096400DAA47407416B
:10E76E00EB05CE78301600E898C63C000F1A03DA97
:10E77E003C00F6C7041183200051CAFFEA60A24A8A
:10E78E002B05E8661E4EAB040C640E174005E91708
:10E79E007C002005EA6000DEDE4A2B05EA670453A2
:10E7AE002B05EA4E754EAB040C650A102B05EA6775
:10E7BE00F2102B05E9177C000005EA003C00014E23
:10E7CE00756100E5304A2B05B56B00DA14612E64D5
:10E7DE00FC6100F4A060F66100E51A4A2B05B56BEA
:10E7EE0000D9FE611863FC6100F48A60F6B03C004B
:10E7FE00296600DA184FEF00046000E6566100E665
:10E80E0054B03C002C66E63F2B05942F2B059061EF
:10E81E0000E4E24A2B05B56B00D9C6275F05983098
:10E82E001F3740059C176B0595059EB12B059E6005
:10E83E0000F4AEB03C002C672C6100EF824A0067FA
:10E84E0012B03C00106500D9B8B02B05E264041775
:10E85E004005E2174005E66100E5FA672CB03C0082
:10E86E002C6600D9A86100EF524A006B00D992B015
:10E87E003C00016500D98A122B05E66708B02B050E
:10E88E00E66E00D97C174005E2102B05E6670AB04C
:10E89E002B05E26404174005E2902B05E264FAD0E2
:10E8AE002B05E2D02B05E24400D02B05E6174005E0
:10E8BE00E74E754A2B05956B00D9464A2B05946792
:10E8CE00F048E77800202B059074002202761F088E
:10E8DE002B000005946606D080D582D281D080D5DB
:10E8EE00822801D8845284B4846504948452815160
:10E8FE00CBFFE627410590102B0594907C0080E21B
:10E90E004864025240D07C0080174005944CDF00D2
:10E91E001E6000F09E101D6100E74A6100E5222096
:10E92E00086000EA3041F8040020086000EA26275B
:10E93E007CC90FDAA20590377C820005944E7527AC
:10E94E007CC90FDAA20590377C830005944E75487A
:10E95E00E77C007200260128011741059517410535
:10E96E00B5174105AF6100E4EC653CB03C002D6687
:10E97E0008177C00FF05956006B03C002B6606610B
:10E98E0000E4D06522B03C002E67000092B03C003F
:10E99E00246700010AB03C00256700016460000096
:10E9AE008C6100E4AE646C610001A864F452836172
:10E9BE0000E4A065F8B03C002E66066100E49465A4
:10E9CE00FAB03C004566646100E4886528B03C00FE
:10E9DE002D6706B03C00B36608177C00FF05AF60DC
:10E9EE000EB03C002B6708B03C00B26600D81E612A
:10E9FE0000E4606436C8FC000AC0BC000000FF9052
:10EA0E003C0030D880B83C00306FE46100E44465CF
:10EA1E00FA6018B03C002E670460A653836100E4D0
:10EA2E0032649E6100012C64F260904A2B05AF6A3D
:10EA3E00024484D88376204A8167526B085383D26E
:10EA4E00815BCBFFFCB8BC000000266E00D7AEB8D1
:10EA5E00BCFFFFFFDA6D344484C9FC00062F084169
:10EA6E00FA021017704000059C277040020598208E
:10EA7E005F0A0300802741059017430594176B0525
:10EA8E0095059E4CDF003E6000F050720026011787
:10EA9E00430594274105904CDF003E4E75177C00D0
:10EAAE004005B576206100E3AA6514803C002090F5
:10EABE003C0061652AB03C00066424D03C003A61FB
:10EACE006C64E258836900D7346100E38665F48094
:10EADE003C0020903C00616506B03C000665E44AAF
:10EAEE008167AA6B085383D2815BCBFFFC0A0300BC
:10EAFE008017430594274105904CDF003E4E751755
:10EB0E007C004005B576206100E34864D2B03C003D
:10EB1E003264CC2401612464EE52836900D6DE6136
:10EB2E0000E33064BAB03C003265EE60B22401D42A
:10EB3E008265CAD48265C6D48265C2D48265BEC0DF
:10EB4E00BC000000FF903C0030D48065B022024E25
:10EB5E00752401D4826508D4826504D48164DC4EA8
:10EB6E00753B9ACA0005F5E10000989680000F42A9
:10EB7E0040000186A000002710000003E8000000FE
:10EB8E00640000000A00000000332E3232FF0096AF
:10EB9E00769951FB00F0BDC21BF800C097CE7CF5F4
:10EBAE00009A130B96F100F684DF57EE00C5371965
:10EBBE0012EB009DC5ADA8E700FC6F7C40E400C9D8
:10EBCE00F2C9CDE100A18F07D7DE00813F3979DA96
:10EBDE0000CECB8F28D700A56FA5BAD4008459518B
:10EBEE0061D000D3C21BCFCD00A968163FCA0087E3
:10EBFE00867832C600D8D726B7C300AD78EBC6C02C
:10EC0E00008AC72305BC00DE0B6B3AB900B1A2BC6B
:10EC1E002FB6008E1BC9BFB200E35FA932AF00B59D
:10EC2E00E620F5AC009184E72AA800E8D4A510A54B
:10EC3E0000BA43B740A2009502F9009E00EE6B2881
:10EC4E00009B00BEBC20009800989680009400F4B3
:10EC5E002400009100C35000008E009C4000008AEA
:10EC6E0000FA0000008700C80000008400A0000029
:10EC7E00008100800000007D00CCCCCCCD7A00A3BA
:10EC8E00D70A3D770083126E987300D1B71759706B
:10EC9E0000A7C5AC476D008637BD066900D6BF9488
:10ECAE00D66600ABCC7712630089705F415F00DBE4
:10ECBE00E6FECF5C00AFEBFF0C59008CBCCC0955C7
:10ECCE0000E12E13425200B424DC354F00901D7C1F
:10ECDE00F74B00E69594BF4800B877AA32450093EB
:10ECEE0092EE8F4100EC1E4A7E3E00BCE508653B6D
:10ECFE0000971DA0503700F1C900813400C16D9AF4
:10ED0E000131009ABE14CD2D00F79687AE2A00C6AB
:10ED1E0012062527009E74D1B82300FD87B5F32077
:10ED2E0000CAD2F7F51D00A2425FF71A0081CEB3DA
:10ED3E002C1600CFB11EAD1300A6274BBE100084BB
:10ED4E00EC3C980C00D4AD2DC00900AA24249906E1
:10ED5E0000881CEA140200D9C7DCED4DBA76D42027
:10ED6E0000000012E4051E09FB385C051111D502E6
:10ED7E008B0D440145D7E200A2F61F00517C5600D0
:10ED8E0028BE5400145F2F000A2F99000517CD00DE
:10ED9E00028BE7000145F40000A2FA0000517D004D
:10EDAE000028BF0000146000000A300000051800A3
:10EDBE0000028C00000146000000A300000052007B
:10EDCE00000029000000150000000B0000000600E6
:10EDDE000000030000000200000001000000011D01
:10EDEE00AC67050FADBAFD07F56EA703FEAB770155
:10EDFE00FFD55C00FFFAAB007FFF55003FFFEB0035
:10EE0E001FFFFD00100000000800000004000000BD
:10EE1E000200000001000000008000000040000021
:10EE2E000020000000100000000800000004000098
:10EE3E000002000000010000000080000000400001
:10EE4E000000200000001000000008000000040078
:10EE5E00000002000000010000000000000000237E
:10EE6E0027D4F41058AEFA080AC48E0401562202B2
:10EE7E00002AB001000554008000AA0040001400D2
:10EE8E002000020010000000080000000400000036
:10EE9E0002000000010000000080000000400000A1
:10EEAE000020000000100000000800000004000018
:10EEBE000002000000010000000080000000400081
:10EECE0000002000000010000000080000000400F8
:10EEDE00000002000000010000000000000000D74A
:10EEEE009ED6D2DD44D8F2DC38E116DC5EDA6ADA80
:10EEFE0006D85AD822D91AD7CCD848D8DED98CD72A
:10EF0E00A6D994D7FADA0CEA1EEA0CEA10E4A6E9BE
:10EF1E008CE9BCE9C2EA14D836D888DAFED804D611
:10EF2E001CD618D5C6F954DAC4E9D6F49EF4AEDF71
:10EF3E00C4DFC4DFC4DDC4DF0CDF0CDFC4DFC4DF1D
:10EF4E00C4DFC4DFC4DFC4DFC4DFC4DFC4DFC4DF9B
:10EF5E00C4DFB6DFC4DFB6DFB6DFB6DFB6DFC4DFD1
:10EF6E00FEDFFE000000000000DFD2DFD2DFD200A5
:10EF7E00000000DFDCDFDCDFDCDDC4ED4AEDCEEDD2
:10EF8E005CE968E3C2E3F4F938F21CEA6CF102F2D0
:10EF9E0070F288F24EF34EE8E4E8F6E90CE826E467
:10EFAE00EAE86CE82EE7DCE7ACE714F7DAF788F46A
:10EFBE0022F846F85CF9AAF9B4F9C4F99AE80EE712
:10EFCE0024E738E768F4500079E96E0079E95A00D1
:10EFDE007BEB12007BEB9E007FF0000050DFA60063
:10EFEE0046DF960046DF9E0056E04A0056E03A00A5
:10EFFE007DF064005ADFBC0064DFC6FFF0BDC000C8
:10F00E000186A0FFFFD8F0000003E8FFFFFF9C0081
:10F01E0000000AFFFFFFFF00000002FFFF0004FFD9
:10F02E00FF0006FFFFFFFFFFFFFFFFFFFFFFFFFFDA
:10F03E00FFFFFFFFFFFFFFFFFFFFFF0008000C00B9
:10F04E000E0012FFFF00140024003D0054006D005E
:10F05E007C008600930099FFFFFFFF00A800D600FA
:10F06E00E400F300F8FFFF010D01370162017601A4
:10F07E008E019AFFFFFFFFFFFFFFFFFFFFFFFF0164
:10F08E00A9450100714601007C4E0200E7440200D2
:10F09E00544903009E44010063520201144C0100C6
:10F0AE00BE44010058470200895201013349000055
:10F0BE00995205011B4703008D5204012252010192
:10F0CE0018530201544F0000F34E0200EE490100A6
:10F0DE009B5702019A4C0200C55302013C440100A9
:10F0EE0060500200FF440200664C0200CD43020055
:10F0FE003D4400006A4C0200D15003010743020058
:10F10E004B4C0200C1430300464E0100E45703017D
:10F11E00A3470100865302015D4204002F42040002
:10F12E0029540201624502006D5400016E46000032
:10F13E007F530201485402016A4E0100EB53020153
:10F14E00505503017D5703019E2BFF00022DFF003A
:10F15E00042AFF00002FFF00065EFF01A9410100F7
:10F16E0018450100744F0000F53E00000E3C0000F3
:10F17E00083EFF00103DFF000C3CFF000A53020149
:10F18E0040490200A34102001455020189460200C3
:10F19E0081500201035302014C5202012F4C020016
:10F1AE00C9450200774302004F5302014454020145
:10F1BE00664102001F500300F84403005B4C03003D
:10F1CE00AF4C0200BA530301585602018E410200A1
:10F1DE001B550501764C0500A8430300414803006A
:10F1EE009342030024420500354D0200D64D020025
:10F1FE00DF5205010D500000FD540301705605014C
:10F20E0092530301374C0400B4520501284D0300FC
:10F21E00DA55050182003000410048005D006900AA
:10F22E00770080008E00A200AF00C000CF00DE008D
:10F23E00EC00FC010F011E01310141015401680176
:10F24E0079018101884E45585420776974686F752D
:10F25E007420464F520053796E74617800524554B3
:10F26E0055524E20776974686F757420474F535509
:10F27E0042004F7574206F6620444154410046751C
:10F28E006E6374696F6E2063616C6C004F7665728D
:10F29E00666C6F77004F7574206F66206D656D6FAD
:10F2AE00727900556E646566696E6564207374616B
:10F2BE0074656D656E7400417272617920626F754E
:10F2CE006E647300446F75626C652064696D656E63
:10F2DE0073696F6E00446976696465206279207A7D
:10F2EE0065726F00496C6C6567616C20646972654C
:10F2FE0063740054797065206D69736D6174636811
:10F30E0000537472696E6720746F6F206C6F6E6736
:10F31E0000537472696E6720746F6F20636F6D7027
:10F32E006C65780043616E277420636F6E74696E2E
:10F33E00756500556E646566696E65642066756EEA
:10F34E006374696F6E004C4F4F5020776974686F0D
:10F35E00757420444F00556E646566696E65642051
:10F36E007661726961626C6500556E64696D656E79
:10F37E0073696F6E65642061727261790057726F86
:10F38E006E672064696D656E73696F6E730041649C
:10F39E00647265737300466F726D6174004E6F74A4
:10F3AE0020696D706C656D656E74656400B400B235
:10F3BE0000B300B5003CBBBE00BD003EBABC009E13
:10F3CE0000425328C14E44B7534328D3544E28CC41
:10F3DE0000494E2428D84954434C52A7495453450A
:10F3EE0054A6495454535428D900414C4C9B48526E
:10F3FE002428D64C454152A14F4E549F4F5328C9F5
:10F40E00004154418345438845454B28CE45469798
:10F41E00494D854F4B45994F9C004C5345A94E4441
:10F42E00804F52B8585028C8004F52814EAB5245AB
:10F43E0028C3004554A44F544F894F5355428D0055
:10F44E0045582428D700468B4E43934E505554842E
:10F45E004E5428C000434153452428D545454B28DA
:10F46E00CF4546542428E1454E28D045548749536C
:10F47E0054A04F4144954F4728C74F4B459A4F4F85
:10F48E00509D00415828DA49442428E3494E28DB90
:10F49E00004557A2455854824F54AE554C4C9200DD
:10F4AE004E9152B90045454B28CD49DD4F4B4598FD
:10F4BE004F5328C452494E549E00414D424153452C
:10F4CE00DC45414486454D8F4553544F52458C453E
:10F4DE005455524E8E494748542428E24E4428C66D
:10F4EE00554E8A0041444428E041564596474E28E1
:10F4FE00BF494E28CA504328AC515228C5544550D6
:10F50E00AF544F509054522428D1574150A500412A
:10F51E004228A8414E28CB48454EAD4FAA574F50D2
:10F52E0049DE00434153452428D44E54494CB05330
:10F53E00494E472428E4535228C200414C28D24158
:10F54E005250545228DF004149549448494C45B119
:10F55E0049445448A300B6000D0A427265616B001F
:10F56E00204572726F720020696E206C696E652084
:10F57E000045787472612069676E6F7265640D0A5A
:10F58E00005265646F2066726F6D207374617274C1
:10F59E000D0A000D0A52656164790D0A0020427948
:10F5AE0074657320667265650D0A0A456E68616E34
:10F5BE006365642036386B204241534943205665BB
:10F5CE007273696F6E20332E35340D0A0000000001
:10F5DE00000000000000000000000000000000001D
:10F5EE00000000000000000000000000000000000D
:10F5FE0000000000000000000000000000000000FD
:10F60E0000000000000000000000000000000000EC
:02FFFE00000001
:020000040001F9
:10000000080E0001B16F000E0401186F1969C9686C
:10001000000E086F0969C768000E106F1169C86883
:100020002091C290CA902093C282CA922095C28425
:10003000CA9400910181C68000930183C682009515
:100040000185C6840099BE88C698009BBE9AC69A50
:100050003F0E0201046F04010097C696710E436FB4
:10006000000E446F030E456F000E476F4691468B9E
:10007000468F010E0201D56FA00ED46FD189D18BAE
:100080000401009FC68E070E0201766F0401009DD9
:10009000BE8CC69C260E0201076FD28FBE8AC2801C
:1000A000CEB2FED7610044F302F561003CF301F5E6
:1000B000CEA43BD0000EC86E400E025CD8B00AD071
:1000C000FF0E0124F66EBF0E0220F76E0800F5C485
:1000D000C0F423D0800E025CD8A00DD0900E025C3C
:1000E000D8B009D0000E0124D96E950E0220DA6E28
:1000F000DF50C06E12D0010407E1E00E0218D8A450
:1001000003D0B7C4C0F409D0E00E02180110D8A47F
:1001100003D0C7C2C0F401D0C068CEB0FED7CE981D
:10012000CEA0FED7CE88C868BBD7800E025CD8A010
:100130000DD0900E025CD8B009D0000E0124D96E0B
:10014000950E0220DA6ED0C4DFF406D0E00E02185D
:100150000110D8B4D0C4C9F2CEB0FED7CE98CEA08C
:10016000FED7CE889DD705EE00F114EE00F0EE6AC2
:10017000E550E150FCE1E250FAE1026A016A000E4A
:08018000F86E000100EF80F0B1
:04FFFC00B3EF80F0EF
:020000040020DA
:10000000FF0FFF0FFF0FFF0FFF0FFF0FFF0FFF0F80
:10001000FF0FFF0FFF0FFF0FFF0FFF0FFF0FFF0F70
:10002000FF0FFF0FFF0FFF0FFF0FFF0FFF0FFF0F60
:10003000FF0FFF0FFF0FFF0FFF0FFF0FFF0FFF0F50
:020000040030CA
:0A0000008CFFFFF79FFFFFFFFFFFDB
:00000001FF
